S01E00004176725F54696D6572315F4E6F726D616C5F6D6F64652E7372656380
S11300000C9434000C9446000C9446000C94460066
S11300100C9446000C9446000C9446000C94460044
S11300200C9446000C9446000C9446000C94460034
S11300300C9446000C947D000C9446000C944600ED
S11300400C9446000C9446000C9446000C94460014
S11300500C9446000C9446000C9446000C94460004
S11300600C9446000C94460011241FBECFEFD8E038
S1130070DEBFCDBF21E0A0E0B1E001C01D92A13000
S1130080B207E1F70E946B000C94AC000C940000E2
S11300901092850010928400E0E8F0E080818F7077
S11300A08083A4E6B0E08C91877F8C9380818C7FE1
S11300B08083E1E8F0E08081877E808380818B7F8C
S11300C08083808183608083EFE6F0E080818160BB
S11300D08083789408958AB181628AB984B18062F8
S11300E084B98BB18E7F8BB98BB18D7F8BB985B180
S11300F08F7D85B90E944800FFCF1F920F920FB6E3
S11301000F9211248F939F93809100018F5F8093AE
S1130110000180910001813031F488EB97E19093E4
S113012085008093840080910001823070F095B145
S113013080E2892785B99BB182E089278BB9109227
S1130140000110928500109284009F918F910F906E
S10F01500FBE0F901F901895F894FFCF7D
S9030000FC
