S020000054696D65725F70686173655F636F7272656374205F50574D2E73726563CF
S11300000C9434000C943E000C943E000C943E007E
S11300100C943E000C943E000C943E000C943E0064
S11300200C943E000C943E000C943E000C943E0054
S11300300C943E000C943E000C943E000C943E0044
S11300400C943E000C943E000C943E000C943E0034
S11300500C943E000C943E000C943E000C943E0024
S11300600C943E000C943E0011241FBECFEFD8E048
S1130070DEBFCDBF0E945A000C9466000C940000B1
S1130080E4E6F0E080818F7D808384B58F7B84BD3E
S113009084B5806884BD84B5816084BD85B5857F61
S11300A085BD85B58A7F85BD85B5826085BD80E8BF
S11300B087BD08958AB186648AB98BB182608BB991
S11300C08BB18B7F8BB90E944000FFCFF894FFCF98
S9030000FC
