:100000000C9434000C943E000C943E000C943E0082
:100010000C943E000C943E000C943E000C943E0068
:100020000C943E000C943E000C943E000C943E0058
:100030000C943E000C943E000C943E000C943E0048
:100040000C943E000C943E000C943E000C943E0038
:100050000C943E000C943E000C943E000C943E0028
:100060000C943E000C943E0011241FBECFEFD8E04C
:10007000DEBFCDBF0E945B000C946F000C940000AB
:10008000E4E6F0E080818F7D808384B5806484BD68
:1000900084B5806884BD84B5836084BD85B5877F61
:1000A00085BD85B5836085BD85B58B7F85BD8AB1EE
:1000B00080648AB908950E94400080E090E08F3FFC
:1000C000910509F0D0F787BD2FE53AEE40E02150C9
:1000D00030404040E1F700C000000196F0CFF894B6
:0200E000FFCF50
:00000001FF
