:100000000C9434000C943E000C943E000C943E0082
:100010000C943E000C943E000C943E000C943E0068
:100020000C943E000C943E000C943E000C943E0058
:100030000C943E000C943E000C943E000C943E0048
:100040000C943E000C943E000C943E000C943E0038
:100050000C943E000C943E000C943E000C943E0028
:100060000C943E000C943E0011241FBECFEFD8E04C
:10007000DEBFCDBF0E9440000C9482000C940000B3
:100080008AB18E618AB987B1877E87B988B1886164
:1000900088B990E0339902C081E001C080E03499D2
:1000A0000FC02FEF30E742E0215030404040E1F7F1
:1000B00000C0000021E0911120E0922F349BFECF80
:1000C0008823E1F0992369F08BB182608BB98BB101
:1000D0008B7F8BB98BB188608BB98BB18F7E8BB9DD
:1000E000D9CF8BB184608BB98BB18D7F8BB98BB13C
:1000F00080618BB98BB1877F8BB9CCCF8BB1817E7F
:080100008BB9C8CFF894FFCFC2
:00000001FF
