S01900004176725F4C43445F496E746572666163652E73726563C0
S11300000C9434000C9449000C9449000C9449005D
S11300100C9449000C9449000C9449000C94490038
S11300200C9449000C9449000C9449000C94490028
S11300300C9449000C9449000C9449000C94490018
S11300400C9449000C9449000C9449000C94490008
S11300500C9449000C9449000C9449000C944900F8
S11300600C9449000C94490011241FBECFEFD8E032
S1130070DEBFCDBF11E0A0E0B1E0EEE0F7E002C0EA
S113008005900D92AE30B107D9F70E949A010C94F5
S113009085030C94000085B1886085B985E08A9554
S11300A0F1F7000085B1877F85B987EC90E001976F
S11300B0F1F700C0000008959BB1937C9BB983FFC6
S11300C003C09BB194609BB982FF03C09BB198604D
S11300D09BB981FF03C09BB190619BB980FF03C0B2
S11300E08BB180628BB90E944B000895CF93C82FC7
S11300F0613021F485B1806185B903C085B18F7EFB
S113010085B98C2F82958F700E945C008C2F8F7024
S11301100E945C00CF910895CF93C82F60E00E94A5
S11301207600C150C23030F48FE39FE10197F1F7BC
S113013000C00000CF91089584B1806184B984B176
S1130140886084B98AB18C638AB92FEF89EF90E013
S1130150215080409040E1F700C0000085B18F7EBF
S113016085B985B1877F85B983E090E00E945C0002
S11301708FE19EE40197F1F700C0000083E090E076
S11301800E945C009FE72AE186E091502040804075
S1130190E1F700C0000083E090E00E945C009FE76C
S11301A02AE186E0915020408040E1F700C0000041
S11301B082E090E00E945C0087E592E00197F1F70D
S11301C000C0000088E20E948C0088E00E948C003D
S11301D081E00E948C008FE19EE40197F1F700C05A
S11301E0000086E00E948C008CE00E948C00089540
S11301F0882311F090E401C090E0862F8F70890F5E
S113020080680E948C00089561E00E947600089541
S1130210CF93DF93EC0103C021960E9404018881EF
S11302208111FACFDF91CF910895CF93DF93EC0141
S11302308A30910568F09C01ADECBCEC0E94760319
S11302409695879596958795969587950E9415011D
S11302509E01ADECBCEC0E9476039695879596952D
S11302608795969587959C01220F331F880F991FB8
S1130270880F991F880F991F820F931F9E01281BB7
S1130280390BC901805D0E940401DF91CF9108956B
S11302908F929F92AF92BF92CF92DF92EF92FF9292
S11302A04B015C0120E030E0A9010E942302882375
S11302B03CF48DE20E940401B7FAB094B7F8B0940C
S11302C0C501B4010E9428026B017C01CB010E948C
S11302D015018EE20E940401B60180E090E00E94C4
S11302E057029B01AC01C501B4010E94B60120E094
S11302F030E048EC52E40E94090320E030E040E0A2
S11303005FE30E94B7010E9428026B017C018AE02E
S1130310C816D10418F480E30E940401C6010E94A7
S11303201501FF90EF90DF90CF90BF90AF909F901A
S11303308F9008950E949C0060E080E00E94F80085
S113034080E091E00E94080160E081E00E94F800F2
S11303506AE979E98BEC91E40E9448018FED0E94EF
S113036004018CE091E00E940801FFCF5058BB27A4
S1130370AA270E94CE010C94CF020E94C10238F039
S11303800E94C80220F039F49F3F19F426F40C941B
S1130390BE020EF4E095E7FB0C94B802E92F0E942C
S11303A0E00258F3BA17620773078407950720F031
S11303B079F4A6F50C9402030EF4E0950B2EBA2FF3
S11303C0A02D0B01B90190010C01CA01A001112457
S11303D0FF27591B99F0593F50F4503E68F11A1603
S11303E0F040A22F232F342F4427585FF3CF469594
S11303F037952795A795F0405395C9F77EF41F16B6
S1130400BA0B620B730B840BBAF09150A1F0FF0F7F
S1130410BB1F661F771F881FC2F70EC0BA0F621F6B
S1130420731F841F48F4879577956795B795F7955B
S11304309E3F08F0B0CF9395880F08F09927EE0FF0
S11304409795879508950E94940208F481E0089591
S11304500E94E80288F09F5798F0B92F9927B75166
S1130460B0F0E1F0660F771F881F991F1AF0BA9554
S1130470C9F714C0B13091F00E940203B1E00895AD
S11304800C940203672F782F8827B85F39F0B93F9F
S1130490CCF3869577956795B395D9F73EF4909507
S11304A08095709561957F4F8F4F9F4F0895E89485
S11304B009C097FB3EF490958095709561957F4FA8
S11304C08F4F9F4F9923A9F0F92F96E9BB27939556
S11304D0F695879577956795B795F111F8CFFAF466
S11304E0BB0F11F460FF1BC06F5F7F4F8F4F9F4F97
S11304F016C0882311F096E911C0772321F09EE8F5
S1130500872F762F05C0662371F096E8862F70E05A
S113051060E02AF09A95660F771F881FDAF7880F34
S11305209695879597F90895990F0008550FAA0B8A
S1130530E0E8FEEF16161706E807F907C0F01216F2
S11305401306E407F50798F0621B730B840B950BF5
S113055039F40A2661F0232B242B252B21F408954A
S11305600A2609F4A140A6958FEF811D811D0895E7
S113057097F99F6780E870E060E008959FEF80EC52
S1130580089500240A9416161706180609060895F5
S113059000240A9412161306140605060895092E5B
S11305A00394000C11F4882352F0BB0F40F4BF2BCA
S11305B011F460FF04C06F5F7F4F8F4F9F4F08950A
S11305C057FD9058440F551F59F05F3F71F0479500
S11305D0880F97FB991F61F09F3F79F087950895E5
S11305E0121613061406551FF2CF4695F1DF08C004
S11305F0161617061806991FF1CF86957105610521
S113060008940895E894BB2766277727CB0197F9C8
S113061008950E941C030C94CF020E94C10238F07A
S11306200E94C80220F0952311F00C94B8020C9497
S1130630BE0211240C9403030E94E00270F3959F00
S1130640C1F3950F50E0551F629FF001729FBB27C5
S1130650F00DB11D639FAA27F00DB11DAA1F649F61
S11306606627B00DA11D661F829F2227B00DA11D14
S1130670621F739FB00DA11D621F839FA00D611D9A
S1130680221F749F3327A00D611D231F849F600DBB
S1130690211D822F762F6A2F11249F5750409AF0E4
S11306A0F1F088234AF0EE0FFF1FBB1F661F771F70
S11306B0881F91505040A9F79E3F510580F00C943B
S11306C0B8020C9403035F3FE4F3983ED4F3869599
S11306D077956795B795F795E7959F5FC1F7FE2BDB
S11306E0880F911D9695879597F90895A29FB0015B
S11306F0B39FC001A39F700D811D1124911DB29F52
S1110700700D811D1124911D0895F894FFCFF2
S111070E41746D6F732E54656D703A00430094
S9030000FC
