:100000000C9434000C943E000C943E000C943E0082
:100010000C943E000C943E000C943E000C943E0068
:100020000C943E000C943E000C943E000C943E0058
:100030000C943E000C943E000C943E000C943E0048
:100040000C943E000C943E000C943E000C943E0038
:100050000C943E000C943E000C943E000C943E0028
:100060000C943E000C943E0011241FBECFEFD8E04C
:10007000DEBFCDBF0E944F000C9470000C940000B6
:1000800020E030E0213D83E0380744F4A89BFECF18
:1000900085B3816085BB2F5F3F4FF4CF089580E229
:1000A0008093640084B58F7384BD84B5847F84BDE0
:1000B00085B5836085BD85B58B7F85BD16BC8AB14E
:1000C000806C8AB98BB1807C8BB98BB1806C8BB919
:1000D0000E9440008BB18F738BB90E944000F5CF16
:0400E000F894FFCFC2
:00000001FF
