S0150000322E6D6F746F725F64726976652E7372656305
S11300000C9434000C943E000C943E000C943E007E
S11300100C943E000C943E000C943E000C943E0064
S11300200C943E000C943E000C943E000C943E0054
S11300300C943E000C943E000C943E000C943E0044
S11300400C943E000C943E000C943E000C943E0034
S11300500C943E000C943E000C943E000C943E0024
S11300600C943E000C943E0011241FBECFEFD8E048
S1130070DEBFCDBF0E9440000C947F000C940000B2
S11300808AB18E618AB987B1877F87B987B18F7E3C
S113009087B988B1806188B920E001C0292F339BDA
S11300A002C081E001C080E03499F9CF91E02111D0
S11300B090E0EFE1FEE43197F1F700C00000211178
S11300C00CC0882359F38BB182608BB98BB18B7FC1
S11300D08BB98BB188608BB9E1CF222361F088237F
S11300E0E9F28BB184608BB98BB18D7F8BB98BB105
S11300F080618BB9D3CF8BB18D7F8BB9CFCFF8947F
S1050100FFCF2B
S9030000FC
