S01E000054696D6572305F504350574D5F4C65645F4D6F746F722E737265630B
S11300000C9434000C943E000C943E000C943E007E
S11300100C943E000C943E000C943E000C943E0064
S11300200C943E000C943E000C943E000C943E0054
S11300300C943E000C943E000C943E000C943E0044
S11300400C943E000C943E000C943E000C943E0034
S11300500C943E000C943E000C943E000C943E0024
S11300600C943E000C943E0011241FBECFEFD8E048
S1130070DEBFCDBF0E945E000C9478000C9400009B
S1130080E4E6F0E080818F7D808384B58F7B84BD3E
S113009084B5806884BD84B5816084BD84B58D7F5A
S11300A084BD85B5877F85BD85B58B7F85BD85B5C9
S11300B0836085BD8AB180648AB908958AB18164F8
S11300C08AB987B1806387B90E94400080E887BD00
S11300D08FE493EC0197F1F700C0000088B18062CF
S11300E088B988B1807E88B98BB181608BB9FFCF24
S10700F0F894FFCFAE
S9030000FC
