S020000054696D65725F70686173655F636F7272656374205F50574D2E73726563CF
S11300000C9434000C9446000C9446000C94460066
S11300100C9446000C9446000C9446000C94460044
S11300200C9446000C9446000C9446000C94460034
S11300300C9446000C9446000C9446000C94460024
S11300400C9446000C9446000C9446000C94460014
S11300500C9446000C9446000C9446000C94460004
S11300600C9446000C94460011241FBECFEFD8E038
S1130070DEBFCDBF21E0A0E0B1E001C01D92A930F8
S1130080B207E1F70E9438010C9456010C94000069
S1130090E4E6F0E080818F7D808384B58F7B84BD2E
S11300A084B5806884BD84B5816084BD85B5857F51
S11300B085BD85B58A7F85BD85B5826085BD8AB1DC
S11300C080648AB908954A991EC080910201909172
S11300D0030121E0822790930301809302014A9B4C
S11300E0FECF83ED90E30197F1F700C0000085B1E6
S11300F0816085B987EA91E60197F1F700C00000B5
S113010085B18E7F85B949991EC080910001909177
S1130110010121E082279093010180930001499B12
S1130120FECF83ED90E30197F1F700C0000085B1A5
S1130130816085B987EA91E60197F1F700C0000074
S113014085B18E7F85B9489929C0489BFECF83ED40
S113015090E30197F1F700C00000809104019091B1
S1130160050101969093050180930401069724F0FC
S1130170109205011092040183ED90E30197F1F7C9
S113018000C0000085B1816085B987EA91E60197D6
S1130190F1F700C0000085B18E7F85B90895809184
S11301A0020190910301892B19F4109208010DC0EA
S11301B08091000190910101892B21F481E08093C9
S11301C0080103C082E080930801809104019091AA
S11301D005018130910521F4109207011092060166
S11301E08230910531F42EE130E030930701209301
S11301F006018330910531F424E630E030930701A1
S1130200209306018430910531F426E930E03093DF
S1130210070120930601059731F48FEF90E0909346
S1130220070180930601089580910801813079F0D7
S113023018F0823099F018C088B18E7F88B988B1DF
S11302408D7F88B910920501109204010DC088B108
S1130250816088B988B18D7F88B906C088B1826011
S113026088B988B18E7F88B98091060187BD0895C9
S113027084B1836084B987B1836087B98AB1887F88
S11302808AB98BB187608BB983EC99E00197F1F758
S113029000C0000085B1826085B90E9448000E94B8
S11302A063000E94CF000E941401F9CFF894FFCF9D
S9030000FC
