S0150000322E6D6F746F725F64726976652E7372656305
S11300000C9434000C943E000C943E000C943E007E
S11300100C943E000C943E000C943E000C943E0064
S11300200C943E000C943E000C943E000C943E0054
S11300300C943E000C943E000C943E000C943E0044
S11300400C943E000C943E000C943E000C943E0034
S11300500C943E000C943E000C943E000C943E0024
S11300600C943E000C943E0011241FBECFEFD8E048
S1130070DEBFCDBF0E9440000C948C000C940000A5
S11300808AB18E618AB987B1877F87B987B18F7E3C
S113009087B988B1806188B980E020E0339B0AC0C9
S11300A091E08927EFE1FEE43197F1F700C0000009
S11300B03399FECF34990CC091E0211190E0292F9F
S11300C0EFE1FEE43197F1F700C00000349BFECF6E
S11300D08823F1F0222369F09BB192609BB99BB114
S11300E09B7F9BB99BB198609BB99BB19F7E9BB949
S11300F0D5CF2111D3CF9BB194609BB99BB19D7F88
S11301009BB99BB190619BB99BB1977F9BB9C6CFBB
S10F01109BB1917E9BB9C2CFF894FFCF45
S9030000FC
