:100000000C9434000C943E000C943E000C943E0082
:100010000C943E000C943E000C943E000C943E0068
:100020000C943E000C943E000C943E000C943E0058
:100030000C943E000C943E000C943E000C943E0048
:100040000C943E000C943E000C943E000C943E0038
:100050000C943E000C943E000C943E000C943E0028
:100060000C943E000C943E0011241FBECFEFD8E04C
:10007000DEBFCDBF0E944F000C9471000C940000B5
:1000800020E030E0243284EF380740F4A89BFECF14
:1000900085B3816085BB2F5F3F4FF4CF089516BCB9
:1000A000E4E6F0E080818F7D808384B58F7384BD2A
:1000B00084B58C7F84BD85B5877F85BD85B581601E
:1000C00085BD85B5897F85BD8AB180648AB98BB1CC
:1000D0008F7B8BB99BB180E489278BB90E9440004C
:0600E000F9CFF894FFCFF8
:00000001FF
