S01100006C65645F626C696E6B2E737265636F
S11300000C9434000C943E000C943E000C943E007E
S11300100C943E000C943E000C943E000C943E0064
S11300200C943E000C943E000C943E000C943E0054
S11300300C943E000C943E000C943E000C943E0044
S11300400C943E000C943E000C943E000C943E0034
S11300500C943E000C943E000C943E000C943E0024
S11300600C943E000C943E0011241FBECFEFD8E048
S1130070DEBFCDBF0E9440000C945B000C940000D6
S11300808AB18A608AB98BB18A608BB92FEF85EA0D
S11300909EE0215080409040E1F700C0000087EFCF
S11300A08BB92FEF85EA9EE0215080409040E1F724
S10D00B000C00000E8CFF894FFCF71
S9030000FC
