S02100004176725F54656D705F53656E736F725F496E746572666163652E737265631C
S11300000C9434000C9449000C9449000C9449005D
S11300100C9449000C9449000C9449000C94490038
S11300200C9449000C9449000C9449000C94490028
S11300300C9449000C9449000C9449000C94490018
S11300400C9449000C9449000C9449000C94490008
S11300500C9449000C9449000C9449000C944900F8
S11300600C9449000C94490011241FBECFEFD8E032
S1130070DEBFCDBF11E0A0E0B1E0ECE7F8E002C0E4
S113008005900D92AE30B107D9F70E94C1010C94CE
S11300903C040C94000085B1886085B985E08A959C
S11300A0F1F7000085B1877F85B987EC90E001976F
S11300B0F1F700C0000008959BB1937C9BB983FFC6
S11300C003C09BB194609BB982FF03C09BB198604D
S11300D09BB981FF03C09BB190619BB980FF03C0B2
S11300E08BB180628BB90E944B000895CF93C82FC7
S11300F0613021F485B1806185B903C085B18F7EFB
S113010085B98C2F82958F700E945C008C2F8F7024
S11301100E945C00CF910895CF93C82F60E00E94A5
S11301207600C150C23030F48FE39FE10197F1F7BC
S113013000C00000CF91089584B1806184B984B176
S1130140886084B98AB18C638AB92FEF89EF90E013
S1130150215080409040E1F700C0000085B18F7EBF
S113016085B985B1877F85B983E090E00E945C0002
S11301708FE19EE40197F1F700C0000083E090E076
S11301800E945C009FE72AE186E091502040804075
S1130190E1F700C0000083E090E00E945C009FE76C
S11301A02AE186E0915020408040E1F700C0000041
S11301B082E090E00E945C0087E592E00197F1F70D
S11301C000C0000088E20E948C0088E00E948C003D
S11301D081E00E948C008FE19EE40197F1F700C05A
S11301E0000086E00E948C008CE00E948C00089540
S11301F0882311F090E401C090E0862F8F70890F5E
S113020080680E948C00089561E00E947600089541
S1130210CF93DF93EC0103C021960E9404018881EF
S11302208111FACFDF91CF910895CF93DF93EC0141
S11302308A30910568F09C01ADECBCEC0E942D0461
S11302409695879596958795969587950E9415011D
S11302509E01ADECBCEC0E942D0496958795969575
S11302608795969587959C01220F331F880F991FB8
S1130270880F991F880F991F820F931F9E01281BB7
S1130280390BC901805D0E940401DF91CF9108956B
S11302908F929F92AF92BF92CF92DF92EF92FF9292
S11302A04B015C0120E030E0A9010E946802882330
S11302B03CF48DE20E940401B7FAB094B7F8B0940C
S11302C0C501B4010E94DF026B017C01CB010E94D5
S11302D015018EE20E940401B60180E090E00E94C4
S11302E00E039B01AC01C501B4010E94FB0120E097
S11302F030E048EC52E40E94C00320E030E040E0EB
S11303005FE30E94FC010E94DF026B017C018AE032
S1130310C816D10418F480E30E940401C6010E94A7
S11303201501FF90EF90DF90CF90BF90AF909F901A
S11303308F900895ECE7F0E0808180648083808171
S1130340807F8083AAE7B0E08C9187608C93808162
S11303508F7D80830895EAE7F0E080818068808360
S113036080818064808380917A0084FFFCCFEAE7F7
S1130370F0E08081806180838091780090917900A1
S113038008950E949C000E949A0160E080E00E940F
S1130390F80080E091E00E9408010E94AB01BC01DA
S11303A080E090E00E940E0320E030E04AEF53E446
S11303B00E94C00320E030EC4FE754E40E946D0239
S11303C06B017C0160E081E00E94F800C701B60186
S11303D00E9448018FED0E9404018CE091E00E948C
S11303E008012FEF85EA9EE0215080409040E1F71C
S11303F000C00000CACF5058BB27AA270E9413028E
S11304000C9486030E94780338F00E947F0320F046
S113041039F49F3F19F426F40C9475030EF4E09517
S1130420E7FB0C946F03E92F0E94970358F3BA1764
S1130430620773078407950720F079F4A6F50C94F6
S1130440B9030EF4E0950B2EBA2FA02D0B01B901C0
S113045090010C01CA01A0011124FF27591B99F036
S1130460593F50F4503E68F11A16F040A22F232F42
S1130470342F4427585FF3CF469537952795A79592
S1130480F0405395C9F77EF41F16BA0B620B730B39
S1130490840BBAF09150A1F0FF0FBB1F661F771FAA
S11304A0881FC2F70EC0BA0F621F731F841F48F45F
S11304B0879577956795B795F7959E3F08F0B0CFE8
S11304C09395880F08F09927EE0F979587950895CF
S11304D00E944B0308F481E008950E9481020C9469
S11304E086030E947F0358F00E94780340F029F4A9
S11304F05F3F29F00C946F0351110C94BA030C94D0
S113050075030E94970368F39923B1F3552391F37C
S1130510951B550BBB27AA2762177307840738F06E
S11305209F5F5F4F220F331F441FAA1FA9F335D0CB
S11305300E2E3AF0E0E832D091505040E695001C7F
S1130540CAF72BD0FE2F29D0660F771F881FBB1F39
S1130550261737074807AB07B0E809F0BB0B802D17
S1130560BF01FF2793585F4F3AF09E3F510578F043
S11305700C946F030C94BA035F3FE4F3983ED4F3F6
S1130580869577956795B795F7959F5FC9F7880F17
S1130590911D9695879597F90895E1E0660F771F69
S11305A0881FBB1F621773078407BA0720F0621BFA
S11305B0730B840BBA0BEE1F88F7E09508950E9425
S11305C09F0388F09F5798F0B92F9927B751B0F03F
S11305D0E1F0660F771F881F991F1AF0BA95C9F7C3
S11305E014C0B13091F00E94B903B1E008950C94A5
S11305F0B903672F782F8827B85F39F0B93FCCF358
S1130600869577956795B395D9F73EF4909580953F
S1130610709561957F4F8F4F9F4F0895E89409C05F
S113062097FB3EF490958095709561957F4F8F4F21
S11306309F4F9923A9F0F92F96E9BB279395F69537
S1130640879577956795B795F111F8CFFAF4BB0FB5
S113065011F460FF1BC06F5F7F4F8F4F9F4F16C019
S1130660882311F096E911C0772321F09EE8872FA3
S1130670762F05C0662371F096E8862F70E060E05F
S11306802AF09A95660F771F881FDAF7880F9695D8
S1130690879597F90895990F0008550FAA0BE0E87C
S11306A0FEEF16161706E807F907C0F01216130630
S11306B0E407F50798F0621B730B840B950B39F470
S11306C00A2661F0232B242B252B21F408950A26D6
S11306D009F4A140A6958FEF811D811D089597F916
S11306E09F6780E870E060E008959FEF80EC0895D4
S11306F000240A94161617061806090608950024FD
S11307000A9412161306140605060895092E039476
S1130710000C11F4882352F0BB0F40F4BF2B11F4EA
S113072060FF04C06F5F7F4F8F4F9F4F089557FD49
S11307309058440F551F59F05F3F71F04795880F4B
S113074097FB991F61F09F3F79F0879508951216E2
S113075013061406551FF2CF4695F1DF08C016168E
S113076017061806991FF1CF86957105610508943F
S11307700895E894BB2766277727CB0197F9089556
S11307800E94D3030C9486030E94780338F00E94DD
S11307907F0320F0952311F00C946F030C947503E0
S11307A011240C94BA030E94970370F3959FC1F32C
S11307B0950F50E0551F629FF001729FBB27F00D0B
S11307C0B11D639FAA27F00DB11DAA1F649F662760
S11307D0B00DA11D661F829F2227B00DA11D621FAF
S11307E0739FB00DA11D621F839FA00D611D221F69
S11307F0749F3327A00D611D231F849F600D211D4D
S1130800822F762F6A2F11249F5750409AF0F1F0CF
S113081088234AF0EE0FFF1FBB1F661F771F881F38
S113082091505040A9F79E3F510580F00C946F03FE
S11308300C94BA035F3FE4F3983ED4F3869577951E
S11308406795B795F795E7959F5FC1F7FE2B880FDE
S1130850911D9695879597F90895A29FB001B39F2E
S1130860C001A39F700D811D1124911DB29F700DB5
S10F0870811D1124911D0895F894FFCF00
S111087C41746D6F732E54656D703A00430025
S9030000FC
