S017000054696D6572305F4354435F6D6F64652E737265639F
S11300000C9434000C943E000C943E000C943E007E
S11300100C943E000C943E000C943E000C943E0064
S11300200C943E000C943E000C943E000C943E0054
S11300300C943E000C943E000C943E000C943E0044
S11300400C943E000C943E000C943E000C943E0034
S11300500C943E000C943E000C943E000C943E0024
S11300600C943E000C943E0011241FBECFEFD8E048
S1130070DEBFCDBF0E944F000C9479000C940000A9
S113008020E030E0283E83E0380744F4A99BFECF0B
S113009085B3826085BB2F5F3F4FF4CF089584B54D
S11300A0806484BD84B58F7784BD84B58E7F84BD20
S11300B085B5877F85BD84B5826084BD85B5836041
S11300C085BD85B58B7F85BDEEE6F0E08081887FB8
S11300D0808389EF87BD84E084B985B18B7F85B93E
S11300E080E48AB995B184E0892785B90E944000EB
S10900F0F9CFF894FFCFE4
S9030000FC
