:100000000C9434000C9466000C9478000C943E0020
:100010000C943E000C943E000C943E000C943E0068
:100020000C943E000C943E000C943E000C943E0058
:100030000C943E000C943E000C943E000C943E0048
:100040000C943E000C943E000C943E000C943E0038
:100050000C943E000C943E000C943E000C943E0028
:100060000C943E000C943E0011241FBECFEFD8E04C
:10007000DEBFCDBF0E9453000C948A000C94000098
:100080008AB1837F8AB98BB18C608BB9E9E6F0E0E5
:1000900080818E60808380818E7F80838DB383603A
:1000A0008DBB7894089587B1876087B90E9440001E
:1000B0002FEF88E09DE3215080409040E1F700C0A1
:1000C000000098B184E0892788B9F2CF1F920F927F
:1000D0000FB60F9211248F939F9398B181E08927D7
:1000E00088B99F918F910F900FBE0F901F90189518
:1000F0001F920F920FB60F9211248F939F9398B176
:1001000082E0892788B99F918F910F900FBE0F9041
:080110001F901895F894FFCF31
:00000001FF
